{
  "contractName": "ERC165",
  "abi": [
    {
      "constant": true,
      "inputs": [],
      "name": "InterfaceID_ERC721",
      "outputs": [
        {
          "internalType": "bytes4",
          "name": "",
          "type": "bytes4"
        }
      ],
      "payable": false,
      "stateMutability": "view",
      "type": "function"
    },
    {
      "constant": true,
      "inputs": [
        {
          "internalType": "bytes4",
          "name": "_interfaceID",
          "type": "bytes4"
        }
      ],
      "name": "supportsInterface",
      "outputs": [
        {
          "internalType": "bool",
          "name": "",
          "type": "bool"
        }
      ],
      "payable": false,
      "stateMutability": "view",
      "type": "function"
    }
  ],
  "bytecode": "0x608060405234801561001057600080fd5b5061058c806100206000396000f3fe608060405234801561001057600080fd5b50600436106100365760003560e01c806301ffc9a71461003b578063b43bc96d146100a0575b600080fd5b6100866004803603602081101561005157600080fd5b8101908080357bffffffffffffffffffffffffffffffffffffffffffffffffffffffff191690602001909291905050506100fc565b604051808215151515815260200191505060405180910390f35b6100a861033c565b60405180827bffffffffffffffffffffffffffffffffffffffffffffffffffffffff19167bffffffffffffffffffffffffffffffffffffffffffffffffffffffff1916815260200191505060405180910390f35b600060405180807f737570706f727473496e74657266616365286279746573342900000000000000815250601901905060405180910390207bffffffffffffffffffffffffffffffffffffffffffffffffffffffff1916827bffffffffffffffffffffffffffffffffffffffffffffffffffffffff1916148061033557506040518080610508602f9139602f019050604051809103902060405180806104df602991396029019050604051809103902060405180806104ba60259139602501905060405180910390206040518080610537602191396021019050604051809103902060405180807f736574417070726f76616c466f72416c6c28616464726573732c626f6f6c2900815250601f019050604051809103902060405180807f676574417070726f7665642875696e74323536290000000000000000000000008152506014019050604051809103902060405180807f617070726f766528616464726573732c75696e743235362900000000000000008152506018019050604051809103902060405180807f6f776e65724f662875696e7432353629000000000000000000000000000000008152506010019050604051809103902060405180807f62616c616e63654f6628616464726573732900000000000000000000000000008152506012019050604051809103902018181818181818187bffffffffffffffffffffffffffffffffffffffffffffffffffffffff1916827bffffffffffffffffffffffffffffffffffffffffffffffffffffffff1916145b9050919050565b6040518080610508602f9139602f019050604051809103902060405180806104df602991396029019050604051809103902060405180806104ba60259139602501905060405180910390206040518080610537602191396021019050604051809103902060405180807f736574417070726f76616c466f72416c6c28616464726573732c626f6f6c2900815250601f019050604051809103902060405180807f676574417070726f7665642875696e74323536290000000000000000000000008152506014019050604051809103902060405180807f617070726f766528616464726573732c75696e743235362900000000000000008152506018019050604051809103902060405180807f6f776e65724f662875696e7432353629000000000000000000000000000000008152506010019050604051809103902060405180807f62616c616e63654f6628616464726573732900000000000000000000000000008152506012019050604051809103902018181818181818188156fe7472616e7366657246726f6d28616464726573732c616464726573732c75696e7432353629736166655472616e7366657246726f6d28616464726573732c616464726573732c75696e7432353629736166655472616e7366657246726f6d28616464726573732c616464726573732c75696e743235362c6279746573296973417070726f766564466f72416c6c28616464726573732c6164647265737329a265627a7a72315820f5f2bf7ca9d9472cb8509b99f7ab25736dba397d7927b5cb46aa3715dac212fe64736f6c63430005100032",
  "source": "pragma solidity ^0.5;\r\n\r\ncontract ERC165 {\r\n    \r\n    bytes4 constant InterfaceID_ERC165 =\r\n    bytes4(keccak256('supportsInterface(bytes4)'));\r\n\r\n    bytes4 public constant InterfaceID_ERC721 =\r\n    bytes4(keccak256('balanceOf(address)')) ^\r\n    bytes4(keccak256('ownerOf(uint256)')) ^\r\n    bytes4(keccak256('approve(address,uint256)')) ^\r\n    bytes4(keccak256('getApproved(uint256)')) ^\r\n    bytes4(keccak256('setApprovalForAll(address,bool)')) ^\r\n    bytes4(keccak256('isApprovedForAll(address,address)')) ^\r\n    bytes4(keccak256('transferFrom(address,address,uint256)')) ^\r\n    bytes4(keccak256('safeTransferFrom(address,address,uint256)')) ^\r\n    bytes4(keccak256('safeTransferFrom(address,address,uint256,bytes)'));\r\n  \r\n    \r\n    function supportsInterface(bytes4 _interfaceID) external view returns (bool) {\r\n    return ((_interfaceID == InterfaceID_ERC165) || (_interfaceID == InterfaceID_ERC721));\r\n  }\r\n\r\n}\r\n",
  "sourcePath": "/home/administrador/NetBeansProjects/bsm-project-ethereum/contracts/contracts/ERC165.sol",
  "compiler": {
    "name": "solc",
    "version": "0.5.16+commit.9c3226ce.Emscripten.clang"
  },
  "schemaVersion": "3.4.1",
  "updatedAt": "2021-05-14T22:07:55.218Z",
  "devdoc": {
    "methods": {}
  },
  "userdoc": {
    "methods": {}
  }
}