{
  "contractName": "ERC721",
  "abi": [
    {
      "anonymous": false,
      "inputs": [
        {
          "indexed": true,
          "internalType": "address",
          "name": "_owner",
          "type": "address"
        },
        {
          "indexed": true,
          "internalType": "address",
          "name": "_approved",
          "type": "address"
        },
        {
          "indexed": true,
          "internalType": "uint256",
          "name": "_tokenId",
          "type": "uint256"
        }
      ],
      "name": "Approval",
      "type": "event"
    },
    {
      "anonymous": false,
      "inputs": [
        {
          "indexed": true,
          "internalType": "address",
          "name": "_owner",
          "type": "address"
        },
        {
          "indexed": true,
          "internalType": "address",
          "name": "_operator",
          "type": "address"
        },
        {
          "indexed": false,
          "internalType": "bool",
          "name": "_approved",
          "type": "bool"
        }
      ],
      "name": "ApprovalForAll",
      "type": "event"
    },
    {
      "anonymous": false,
      "inputs": [
        {
          "indexed": true,
          "internalType": "address",
          "name": "_from",
          "type": "address"
        },
        {
          "indexed": true,
          "internalType": "address",
          "name": "_to",
          "type": "address"
        },
        {
          "indexed": true,
          "internalType": "uint256",
          "name": "_tokenId",
          "type": "uint256"
        }
      ],
      "name": "Transfer",
      "type": "event"
    },
    {
      "constant": true,
      "inputs": [],
      "name": "InterfaceID_ERC721",
      "outputs": [
        {
          "internalType": "bytes4",
          "name": "",
          "type": "bytes4"
        }
      ],
      "payable": false,
      "stateMutability": "view",
      "type": "function"
    },
    {
      "constant": true,
      "inputs": [
        {
          "internalType": "bytes4",
          "name": "_interfaceID",
          "type": "bytes4"
        }
      ],
      "name": "supportsInterface",
      "outputs": [
        {
          "internalType": "bool",
          "name": "",
          "type": "bool"
        }
      ],
      "payable": false,
      "stateMutability": "view",
      "type": "function"
    },
    {
      "constant": true,
      "inputs": [],
      "name": "totalSupply",
      "outputs": [
        {
          "internalType": "uint256",
          "name": "",
          "type": "uint256"
        }
      ],
      "payable": false,
      "stateMutability": "view",
      "type": "function"
    },
    {
      "constant": true,
      "inputs": [
        {
          "internalType": "address",
          "name": "_owner",
          "type": "address"
        }
      ],
      "name": "balanceOf",
      "outputs": [
        {
          "internalType": "uint256",
          "name": "",
          "type": "uint256"
        }
      ],
      "payable": false,
      "stateMutability": "view",
      "type": "function"
    },
    {
      "constant": true,
      "inputs": [
        {
          "internalType": "uint256",
          "name": "_tokenId",
          "type": "uint256"
        }
      ],
      "name": "ownerOf",
      "outputs": [
        {
          "internalType": "address",
          "name": "owner",
          "type": "address"
        }
      ],
      "payable": false,
      "stateMutability": "view",
      "type": "function"
    },
    {
      "constant": false,
      "inputs": [
        {
          "internalType": "address",
          "name": "_to",
          "type": "address"
        },
        {
          "internalType": "uint256",
          "name": "_tokenId",
          "type": "uint256"
        }
      ],
      "name": "transfer",
      "outputs": [],
      "payable": false,
      "stateMutability": "nonpayable",
      "type": "function"
    },
    {
      "constant": false,
      "inputs": [
        {
          "internalType": "address",
          "name": "_from",
          "type": "address"
        },
        {
          "internalType": "address",
          "name": "_to",
          "type": "address"
        },
        {
          "internalType": "uint256",
          "name": "_tokenId",
          "type": "uint256"
        }
      ],
      "name": "transferFrom",
      "outputs": [],
      "payable": true,
      "stateMutability": "payable",
      "type": "function"
    },
    {
      "constant": false,
      "inputs": [
        {
          "internalType": "address",
          "name": "_from",
          "type": "address"
        },
        {
          "internalType": "address",
          "name": "_to",
          "type": "address"
        },
        {
          "internalType": "uint256",
          "name": "_tokenId",
          "type": "uint256"
        }
      ],
      "name": "safeTransferFrom",
      "outputs": [],
      "payable": true,
      "stateMutability": "payable",
      "type": "function"
    },
    {
      "constant": false,
      "inputs": [
        {
          "internalType": "address",
          "name": "_from",
          "type": "address"
        },
        {
          "internalType": "address",
          "name": "_to",
          "type": "address"
        },
        {
          "internalType": "uint256",
          "name": "_tokenId",
          "type": "uint256"
        },
        {
          "internalType": "bytes",
          "name": "_data",
          "type": "bytes"
        }
      ],
      "name": "safeTransferFrom",
      "outputs": [],
      "payable": true,
      "stateMutability": "payable",
      "type": "function"
    },
    {
      "constant": false,
      "inputs": [
        {
          "internalType": "address",
          "name": "_to",
          "type": "address"
        },
        {
          "internalType": "uint256",
          "name": "_tokenId",
          "type": "uint256"
        }
      ],
      "name": "approve",
      "outputs": [],
      "payable": true,
      "stateMutability": "payable",
      "type": "function"
    },
    {
      "constant": false,
      "inputs": [
        {
          "internalType": "address",
          "name": "_operator",
          "type": "address"
        },
        {
          "internalType": "bool",
          "name": "_approved",
          "type": "bool"
        }
      ],
      "name": "setApprovalForAll",
      "outputs": [],
      "payable": false,
      "stateMutability": "nonpayable",
      "type": "function"
    },
    {
      "constant": true,
      "inputs": [
        {
          "internalType": "uint256",
          "name": "_tokenId",
          "type": "uint256"
        }
      ],
      "name": "getApproved",
      "outputs": [
        {
          "internalType": "address",
          "name": "",
          "type": "address"
        }
      ],
      "payable": false,
      "stateMutability": "view",
      "type": "function"
    },
    {
      "constant": true,
      "inputs": [
        {
          "internalType": "address",
          "name": "_owner",
          "type": "address"
        },
        {
          "internalType": "address",
          "name": "_operator",
          "type": "address"
        }
      ],
      "name": "isApprovedForAll",
      "outputs": [
        {
          "internalType": "bool",
          "name": "",
          "type": "bool"
        }
      ],
      "payable": false,
      "stateMutability": "view",
      "type": "function"
    },
    {
      "constant": true,
      "inputs": [
        {
          "internalType": "address",
          "name": "to",
          "type": "address"
        }
      ],
      "name": "_checkOnERC721Received",
      "outputs": [
        {
          "internalType": "bool",
          "name": "",
          "type": "bool"
        }
      ],
      "payable": false,
      "stateMutability": "view",
      "type": "function"
    }
  ],
  "bytecode": "0x608060405234801561001057600080fd5b50610e73806100206000396000f3fe6080604052600436106100dd5760003560e01c80636352211e1161007f578063a9059cbb11610059578063a9059cbb146104ca578063b43bc96d14610525578063b88d4fde1461058e578063e985e9c514610651576100dd565b80636352211e1461038d57806370a0823114610408578063a22cb4651461046d576100dd565b806318160ddd116100bb57806318160ddd1461021d57806323b872dd1461024857806330de5690146102b657806342842e0e1461031f576100dd565b806301ffc9a7146100e2578063081812fc14610154578063095ea7b3146101cf575b600080fd5b3480156100ee57600080fd5b5061013a6004803603602081101561010557600080fd5b8101908080357bffffffffffffffffffffffffffffffffffffffffffffffffffffffff191690602001909291905050506106da565b604051808215151515815260200191505060405180910390f35b34801561016057600080fd5b5061018d6004803603602081101561017757600080fd5b810190808035906020019092919050505061091a565b604051808273ffffffffffffffffffffffffffffffffffffffff1673ffffffffffffffffffffffffffffffffffffffff16815260200191505060405180910390f35b61021b600480360360408110156101e557600080fd5b81019080803573ffffffffffffffffffffffffffffffffffffffff16906020019092919080359060200190929190505050610921565b005b34801561022957600080fd5b50610232610925565b6040518082815260200191505060405180910390f35b6102b46004803603606081101561025e57600080fd5b81019080803573ffffffffffffffffffffffffffffffffffffffff169060200190929190803573ffffffffffffffffffffffffffffffffffffffff1690602001909291908035906020019092919050505061092a565b005b3480156102c257600080fd5b50610305600480360360208110156102d957600080fd5b81019080803573ffffffffffffffffffffffffffffffffffffffff16906020019092919050505061092f565b604051808215151515815260200191505060405180910390f35b61038b6004803603606081101561033557600080fd5b81019080803573ffffffffffffffffffffffffffffffffffffffff169060200190929190803573ffffffffffffffffffffffffffffffffffffffff16906020019092919080359060200190929190505050610bae565b005b34801561039957600080fd5b506103c6600480360360208110156103b057600080fd5b8101908080359060200190929190505050610bb3565b604051808273ffffffffffffffffffffffffffffffffffffffff1673ffffffffffffffffffffffffffffffffffffffff16815260200191505060405180910390f35b34801561041457600080fd5b506104576004803603602081101561042b57600080fd5b81019080803573ffffffffffffffffffffffffffffffffffffffff169060200190929190505050610bba565b6040518082815260200191505060405180910390f35b34801561047957600080fd5b506104c86004803603604081101561049057600080fd5b81019080803573ffffffffffffffffffffffffffffffffffffffff169060200190929190803515159060200190929190505050610bc1565b005b3480156104d657600080fd5b50610523600480360360408110156104ed57600080fd5b81019080803573ffffffffffffffffffffffffffffffffffffffff16906020019092919080359060200190929190505050610bc5565b005b34801561053157600080fd5b5061053a610bc9565b60405180827bffffffffffffffffffffffffffffffffffffffffffffffffffffffff19167bffffffffffffffffffffffffffffffffffffffffffffffffffffffff1916815260200191505060405180910390f35b61064f600480360360808110156105a457600080fd5b81019080803573ffffffffffffffffffffffffffffffffffffffff169060200190929190803573ffffffffffffffffffffffffffffffffffffffff169060200190929190803590602001909291908035906020019064010000000081111561060b57600080fd5b82018360208201111561061d57600080fd5b8035906020019184600183028401116401000000008311171561063f57600080fd5b9091929391929390505050610d46565b005b34801561065d57600080fd5b506106c06004803603604081101561067457600080fd5b81019080803573ffffffffffffffffffffffffffffffffffffffff169060200190929190803573ffffffffffffffffffffffffffffffffffffffff169060200190929190505050610d4d565b604051808215151515815260200191505060405180910390f35b600060405180807f737570706f727473496e74657266616365286279746573342900000000000000815250601901905060405180910390207bffffffffffffffffffffffffffffffffffffffffffffffffffffffff1916827bffffffffffffffffffffffffffffffffffffffffffffffffffffffff1916148061091357506040518080610def602f9139602f01905060405180910390206040518080610dc660299139602901905060405180910390206040518080610da160259139602501905060405180910390206040518080610e1e602191396021019050604051809103902060405180807f736574417070726f76616c466f72416c6c28616464726573732c626f6f6c2900815250601f019050604051809103902060405180807f676574417070726f7665642875696e74323536290000000000000000000000008152506014019050604051809103902060405180807f617070726f766528616464726573732c75696e743235362900000000000000008152506018019050604051809103902060405180807f6f776e65724f662875696e7432353629000000000000000000000000000000008152506010019050604051809103902060405180807f62616c616e63654f6628616464726573732900000000000000000000000000008152506012019050604051809103902018181818181818187bffffffffffffffffffffffffffffffffffffffffffffffffffffffff1916827bffffffffffffffffffffffffffffffffffffffffffffffffffffffff1916145b9050919050565b6000919050565b5050565b600090565b505050565b60006109508273ffffffffffffffffffffffffffffffffffffffff16610d55565b61095d5760019050610ba9565b60008273ffffffffffffffffffffffffffffffffffffffff166301ffc9a76040518080610def602f9139602f01905060405180910390206040518080610dc660299139602901905060405180910390206040518080610da160259139602501905060405180910390206040518080610e1e602191396021019050604051809103902060405180807f736574417070726f76616c466f72416c6c28616464726573732c626f6f6c2900815250601f019050604051809103902060405180807f676574417070726f7665642875696e74323536290000000000000000000000008152506014019050604051809103902060405180807f617070726f766528616464726573732c75696e743235362900000000000000008152506018019050604051809103902060405180807f6f776e65724f662875696e7432353629000000000000000000000000000000008152506010019050604051809103902060405180807f62616c616e63654f6628616464726573732900000000000000000000000000008152506012019050604051809103902018181818181818186040518263ffffffff1660e01b815260040180827bffffffffffffffffffffffffffffffffffffffffffffffffffffffff19167bffffffffffffffffffffffffffffffffffffffffffffffffffffffff1916815260200191505060206040518083038186803b158015610b6757600080fd5b505afa158015610b7b573d6000803e3d6000fd5b505050506040513d6020811015610b9157600080fd5b81019080805190602001909291905050509050809150505b919050565b505050565b6000919050565b6000919050565b5050565b5050565b6040518080610def602f9139602f01905060405180910390206040518080610dc660299139602901905060405180910390206040518080610da160259139602501905060405180910390206040518080610e1e602191396021019050604051809103902060405180807f736574417070726f76616c466f72416c6c28616464726573732c626f6f6c2900815250601f019050604051809103902060405180807f676574417070726f7665642875696e74323536290000000000000000000000008152506014019050604051809103902060405180807f617070726f766528616464726573732c75696e743235362900000000000000008152506018019050604051809103902060405180807f6f776e65724f662875696e7432353629000000000000000000000000000000008152506010019050604051809103902060405180807f62616c616e63654f66286164647265737329000000000000000000000000000081525060120190506040518091039020181818181818181881565b5050505050565b600092915050565b60008060007fc5d2460186f7233c927e7db2dcc703c0e500b653ca82273b7bfad8045d85a47060001b9050833f91506000801b8214158015610d975750808214155b9250505091905056fe7472616e7366657246726f6d28616464726573732c616464726573732c75696e7432353629736166655472616e7366657246726f6d28616464726573732c616464726573732c75696e7432353629736166655472616e7366657246726f6d28616464726573732c616464726573732c75696e743235362c6279746573296973417070726f766564466f72416c6c28616464726573732c6164647265737329a265627a7a7231582094396c47aed24d4fa484c66c8538473005df99d05298c3dadb18987d335e562864736f6c63430005100032",
  "source": "pragma solidity ^0.5;\r\n\r\nimport \"./IERC721.sol\";\r\nimport \"./ERC165.sol\";\r\nimport \"./Address.sol\";\r\n\r\n\r\ncontract ERC721 is IERC721, ERC165 {\r\n\r\n    using Address for address;\r\n\r\n\r\n    /*** ERC721 IMPLEMENTATION ***/\r\n\r\n    function totalSupply() public view returns (uint256) {\r\n\r\n    }\r\n\r\n    function balanceOf(address _owner) public view returns (uint256) {\r\n\r\n    }\r\n\r\n    function ownerOf(uint256 _tokenId) external view returns (address owner) {\r\n\r\n    }\r\n\r\n    function transfer(address _to, uint256 _tokenId) external {\r\n\r\n    }\r\n\r\n    function transferFrom(address _from, address _to, uint256 _tokenId) external payable {\r\n\r\n    }\r\n\r\n    function safeTransferFrom(address _from, address _to, uint256 _tokenId) external payable {\r\n\r\n    }\r\n\r\n    function safeTransferFrom(address _from, address _to, uint256 _tokenId, bytes calldata _data) external payable {\r\n\r\n    }\r\n\r\n    function approve(address _to, uint256 _tokenId) external payable {\r\n\r\n    }\r\n\r\n    function setApprovalForAll(address _operator, bool _approved) external {\r\n\r\n    }\r\n\r\n    function getApproved(uint256 _tokenId) external view returns (address) {\r\n\r\n    }\r\n\r\n    function isApprovedForAll(address _owner, address _operator) external view returns (bool) {\r\n\r\n    }\r\n\r\n\r\n    /*** INTERNAL FUNCTIONS ***/\r\n\r\n\r\n\r\n\r\n    /*** OTHER EXTERNAL FUNCTIONS ***/\r\n\r\n    function _checkOnERC721Received(address to) public view returns (bool) {\r\n        if (!to.isContract()) {\r\n            return true;\r\n        }\r\n\r\n        bool retval = ERC165(to).supportsInterface(InterfaceID_ERC721);\r\n        return retval;\r\n    }\r\n\r\n\r\n}\r\n",
  "sourcePath": "/home/administrador/NetBeansProjects/bsm-project-ethereum/contracts/contracts/ERC721.sol",
  "compiler": {
    "name": "solc",
    "version": "0.5.16+commit.9c3226ce.Emscripten.clang"
  },
  "schemaVersion": "3.4.1",
  "updatedAt": "2021-05-30T07:47:49.806Z",
  "devdoc": {
    "methods": {}
  },
  "userdoc": {
    "methods": {
      "_checkOnERC721Received(address)": {
        "notice": "* OTHER EXTERNAL FUNCTIONS **"
      },
      "totalSupply()": {
        "notice": "* ERC721 IMPLEMENTATION **"
      }
    }
  }
}